{
  "address": "0x381EBA262eb91f55ca44748B1151406F5Da5bd09",
  "abi": [
    {
      "inputs": [
        {
          "internalType": "address",
          "name": "_owner",
          "type": "address"
        },
        {
          "internalType": "address",
          "name": "_endpoint",
          "type": "address"
        }
      ],
      "stateMutability": "nonpayable",
      "type": "constructor"
    },
    {
      "inputs": [
        {
          "internalType": "address",
          "name": "target",
          "type": "address"
        }
      ],
      "name": "AddressEmptyCode",
      "type": "error"
    },
    {
      "inputs": [
        {
          "internalType": "address",
          "name": "account",
          "type": "address"
        }
      ],
      "name": "AddressInsufficientBalance",
      "type": "error"
    },
    {
      "inputs": [],
      "name": "FailedInnerCall",
      "type": "error"
    },
    {
      "inputs": [],
      "name": "InvalidDelegate",
      "type": "error"
    },
    {
      "inputs": [],
      "name": "InvalidEndpointCall",
      "type": "error"
    },
    {
      "inputs": [],
      "name": "LzTokenUnavailable",
      "type": "error"
    },
    {
      "inputs": [
        {
          "internalType": "uint32",
          "name": "eid",
          "type": "uint32"
        }
      ],
      "name": "NoPeer",
      "type": "error"
    },
    {
      "inputs": [
        {
          "internalType": "uint256",
          "name": "msgValue",
          "type": "uint256"
        }
      ],
      "name": "NotEnoughNative",
      "type": "error"
    },
    {
      "inputs": [
        {
          "internalType": "address",
          "name": "addr",
          "type": "address"
        }
      ],
      "name": "OnlyEndpoint",
      "type": "error"
    },
    {
      "inputs": [
        {
          "internalType": "uint32",
          "name": "eid",
          "type": "uint32"
        },
        {
          "internalType": "bytes32",
          "name": "sender",
          "type": "bytes32"
        }
      ],
      "name": "OnlyPeer",
      "type": "error"
    },
    {
      "inputs": [
        {
          "internalType": "address",
          "name": "owner",
          "type": "address"
        }
      ],
      "name": "OwnableInvalidOwner",
      "type": "error"
    },
    {
      "inputs": [
        {
          "internalType": "address",
          "name": "account",
          "type": "address"
        }
      ],
      "name": "OwnableUnauthorizedAccount",
      "type": "error"
    },
    {
      "inputs": [
        {
          "internalType": "address",
          "name": "token",
          "type": "address"
        }
      ],
      "name": "SafeERC20FailedOperation",
      "type": "error"
    },
    {
      "anonymous": false,
      "inputs": [
        {
          "indexed": false,
          "internalType": "uint64",
          "name": "chainId",
          "type": "uint64"
        },
        {
          "indexed": false,
          "internalType": "uint64",
          "name": "blockNumber",
          "type": "uint64"
        },
        {
          "indexed": false,
          "internalType": "bytes32",
          "name": "blockHash",
          "type": "bytes32"
        }
      ],
      "name": "BlockHashReceived",
      "type": "event"
    },
    {
      "anonymous": false,
      "inputs": [
        {
          "indexed": true,
          "internalType": "address",
          "name": "previousOwner",
          "type": "address"
        },
        {
          "indexed": true,
          "internalType": "address",
          "name": "newOwner",
          "type": "address"
        }
      ],
      "name": "OwnershipTransferred",
      "type": "event"
    },
    {
      "anonymous": false,
      "inputs": [
        {
          "indexed": false,
          "internalType": "uint32",
          "name": "eid",
          "type": "uint32"
        },
        {
          "indexed": false,
          "internalType": "bytes32",
          "name": "peer",
          "type": "bytes32"
        }
      ],
      "name": "PeerSet",
      "type": "event"
    },
    {
      "inputs": [
        {
          "internalType": "uint64",
          "name": "_chainId",
          "type": "uint64"
        },
        {
          "internalType": "uint64",
          "name": "_blockNumber",
          "type": "uint64"
        },
        {
          "internalType": "bytes32",
          "name": "_blockhash",
          "type": "bytes32"
        }
      ],
      "name": "addToHistory",
      "outputs": [],
      "stateMutability": "nonpayable",
      "type": "function"
    },
    {
      "inputs": [
        {
          "components": [
            {
              "internalType": "uint32",
              "name": "srcEid",
              "type": "uint32"
            },
            {
              "internalType": "bytes32",
              "name": "sender",
              "type": "bytes32"
            },
            {
              "internalType": "uint64",
              "name": "nonce",
              "type": "uint64"
            }
          ],
          "internalType": "struct Origin",
          "name": "origin",
          "type": "tuple"
        }
      ],
      "name": "allowInitializePath",
      "outputs": [
        {
          "internalType": "bool",
          "name": "",
          "type": "bool"
        }
      ],
      "stateMutability": "view",
      "type": "function"
    },
    {
      "inputs": [],
      "name": "endpoint",
      "outputs": [
        {
          "internalType": "contract ILayerZeroEndpointV2",
          "name": "",
          "type": "address"
        }
      ],
      "stateMutability": "view",
      "type": "function"
    },
    {
      "inputs": [
        {
          "internalType": "uint64",
          "name": "_chainId",
          "type": "uint64"
        },
        {
          "internalType": "uint64",
          "name": "_blockNumber",
          "type": "uint64"
        }
      ],
      "name": "getBlockHash",
      "outputs": [
        {
          "internalType": "bytes32",
          "name": "",
          "type": "bytes32"
        }
      ],
      "stateMutability": "view",
      "type": "function"
    },
    {
      "inputs": [
        {
          "internalType": "uint256",
          "name": "blockNumber",
          "type": "uint256"
        }
      ],
      "name": "getBlockHash",
      "outputs": [
        {
          "internalType": "bytes32",
          "name": "",
          "type": "bytes32"
        }
      ],
      "stateMutability": "view",
      "type": "function"
    },
    {
      "inputs": [
        {
          "internalType": "uint64",
          "name": "_chainId",
          "type": "uint64"
        },
        {
          "internalType": "uint64",
          "name": "_blockNumber",
          "type": "uint64"
        }
      ],
      "name": "isBlockInHistory",
      "outputs": [
        {
          "internalType": "bool",
          "name": "",
          "type": "bool"
        }
      ],
      "stateMutability": "view",
      "type": "function"
    },
    {
      "inputs": [
        {
          "components": [
            {
              "internalType": "uint32",
              "name": "srcEid",
              "type": "uint32"
            },
            {
              "internalType": "bytes32",
              "name": "sender",
              "type": "bytes32"
            },
            {
              "internalType": "uint64",
              "name": "nonce",
              "type": "uint64"
            }
          ],
          "internalType": "struct Origin",
          "name": "",
          "type": "tuple"
        },
        {
          "internalType": "bytes",
          "name": "",
          "type": "bytes"
        },
        {
          "internalType": "address",
          "name": "_sender",
          "type": "address"
        }
      ],
      "name": "isComposeMsgSender",
      "outputs": [
        {
          "internalType": "bool",
          "name": "",
          "type": "bool"
        }
      ],
      "stateMutability": "view",
      "type": "function"
    },
    {
      "inputs": [
        {
          "components": [
            {
              "internalType": "uint32",
              "name": "srcEid",
              "type": "uint32"
            },
            {
              "internalType": "bytes32",
              "name": "sender",
              "type": "bytes32"
            },
            {
              "internalType": "uint64",
              "name": "nonce",
              "type": "uint64"
            }
          ],
          "internalType": "struct Origin",
          "name": "_origin",
          "type": "tuple"
        },
        {
          "internalType": "bytes32",
          "name": "_guid",
          "type": "bytes32"
        },
        {
          "internalType": "bytes",
          "name": "_message",
          "type": "bytes"
        },
        {
          "internalType": "address",
          "name": "_executor",
          "type": "address"
        },
        {
          "internalType": "bytes",
          "name": "_extraData",
          "type": "bytes"
        }
      ],
      "name": "lzReceive",
      "outputs": [],
      "stateMutability": "payable",
      "type": "function"
    },
    {
      "inputs": [
        {
          "internalType": "uint32",
          "name": "",
          "type": "uint32"
        },
        {
          "internalType": "bytes32",
          "name": "",
          "type": "bytes32"
        }
      ],
      "name": "nextNonce",
      "outputs": [
        {
          "internalType": "uint64",
          "name": "nonce",
          "type": "uint64"
        }
      ],
      "stateMutability": "view",
      "type": "function"
    },
    {
      "inputs": [],
      "name": "oAppVersion",
      "outputs": [
        {
          "internalType": "uint64",
          "name": "senderVersion",
          "type": "uint64"
        },
        {
          "internalType": "uint64",
          "name": "receiverVersion",
          "type": "uint64"
        }
      ],
      "stateMutability": "pure",
      "type": "function"
    },
    {
      "inputs": [],
      "name": "owner",
      "outputs": [
        {
          "internalType": "address",
          "name": "",
          "type": "address"
        }
      ],
      "stateMutability": "view",
      "type": "function"
    },
    {
      "inputs": [
        {
          "internalType": "uint32",
          "name": "eid",
          "type": "uint32"
        }
      ],
      "name": "peers",
      "outputs": [
        {
          "internalType": "bytes32",
          "name": "peer",
          "type": "bytes32"
        }
      ],
      "stateMutability": "view",
      "type": "function"
    },
    {
      "inputs": [
        {
          "internalType": "uint32",
          "name": "_dstEid",
          "type": "uint32"
        },
        {
          "internalType": "uint256",
          "name": "_blockNumber",
          "type": "uint256"
        },
        {
          "internalType": "bytes",
          "name": "_options",
          "type": "bytes"
        },
        {
          "internalType": "bool",
          "name": "_payInLzToken",
          "type": "bool"
        }
      ],
      "name": "quote",
      "outputs": [
        {
          "components": [
            {
              "internalType": "uint256",
              "name": "nativeFee",
              "type": "uint256"
            },
            {
              "internalType": "uint256",
              "name": "lzTokenFee",
              "type": "uint256"
            }
          ],
          "internalType": "struct MessagingFee",
          "name": "fee",
          "type": "tuple"
        }
      ],
      "stateMutability": "view",
      "type": "function"
    },
    {
      "inputs": [],
      "name": "renounceOwnership",
      "outputs": [],
      "stateMutability": "nonpayable",
      "type": "function"
    },
    {
      "inputs": [
        {
          "internalType": "uint32",
          "name": "_dstEid",
          "type": "uint32"
        },
        {
          "internalType": "uint256",
          "name": "_blockNumber",
          "type": "uint256"
        },
        {
          "internalType": "bytes",
          "name": "_options",
          "type": "bytes"
        }
      ],
      "name": "send",
      "outputs": [
        {
          "components": [
            {
              "internalType": "bytes32",
              "name": "guid",
              "type": "bytes32"
            },
            {
              "internalType": "uint64",
              "name": "nonce",
              "type": "uint64"
            },
            {
              "components": [
                {
                  "internalType": "uint256",
                  "name": "nativeFee",
                  "type": "uint256"
                },
                {
                  "internalType": "uint256",
                  "name": "lzTokenFee",
                  "type": "uint256"
                }
              ],
              "internalType": "struct MessagingFee",
              "name": "fee",
              "type": "tuple"
            }
          ],
          "internalType": "struct MessagingReceipt",
          "name": "receipt",
          "type": "tuple"
        }
      ],
      "stateMutability": "payable",
      "type": "function"
    },
    {
      "inputs": [
        {
          "internalType": "address",
          "name": "_delegate",
          "type": "address"
        }
      ],
      "name": "setDelegate",
      "outputs": [],
      "stateMutability": "nonpayable",
      "type": "function"
    },
    {
      "inputs": [
        {
          "internalType": "uint32",
          "name": "_eid",
          "type": "uint32"
        },
        {
          "internalType": "bytes32",
          "name": "_peer",
          "type": "bytes32"
        }
      ],
      "name": "setPeer",
      "outputs": [],
      "stateMutability": "nonpayable",
      "type": "function"
    },
    {
      "inputs": [
        {
          "internalType": "address",
          "name": "newOwner",
          "type": "address"
        }
      ],
      "name": "transferOwnership",
      "outputs": [],
      "stateMutability": "nonpayable",
      "type": "function"
    },
    {
      "inputs": [
        {
          "internalType": "uint64",
          "name": "chainId",
          "type": "uint64"
        },
        {
          "internalType": "uint64",
          "name": "timestamp",
          "type": "uint64"
        }
      ],
      "name": "visions",
      "outputs": [
        {
          "internalType": "bytes32",
          "name": "blockhash",
          "type": "bytes32"
        }
      ],
      "stateMutability": "view",
      "type": "function"
    }
  ],
  "transactionHash": "0x68a5e3b0e5490acec92aa3cba3dd8b32cc29e443f20713aad730b627eccf1ce1",
  "args": [
    "0x13E5E5deA5620A8f4B5C430339795cb5BaB6676e",
    "0x6EDCE65403992e310A62460808c4b910D972f10f"
  ],
  "numDeployments": 1,
  "solcInputHash": "6666b513a922b1a7869c34c682a38136",
  "bytecode": "0x60a06040523480156200001157600080fd5b5060405162001b0c38038062001b0c833981016040819052620000349162000180565b808281818181806001600160a01b0381166200006a57604051631e4fbdf760e01b81526000600482015260240160405180910390fd5b620000758162000113565b506001600160a01b038083166080528116620000a457604051632d618d8160e21b815260040160405180910390fd5b60805160405163ca5eb5e160e01b81526001600160a01b0383811660048301529091169063ca5eb5e190602401600060405180830381600087803b158015620000ec57600080fd5b505af115801562000101573d6000803e3d6000fd5b505050505050505050505050620001b8565b600080546001600160a01b038381166001600160a01b0319831681178455604051919092169283917f8be0079c531659141344cd1fd0a4f28419497f9722a3daafe3b4186f6b6457e09190a35050565b80516001600160a01b03811681146200017b57600080fd5b919050565b600080604083850312156200019457600080fd5b6200019f8362000163565b9150620001af6020840162000163565b90509250929050565b60805161190e620001fe600039600081816102120152818161046a0152818161078401528181610b7a01528181610ce001528181610df20152610ec2015261190e6000f3fe6080604052600436106101445760003560e01c806382413eac116100c0578063ca5eb5e111610074578063ef009f2411610059578063ef009f2414610408578063f2fde38b14610428578063ff7bd03d1461044857600080fd5b8063ca5eb5e1146103c8578063ee82ac5e146103e857600080fd5b806397db6af6116100a557806397db6af614610332578063a48da27a1461037b578063bb0b6a531461039b57600080fd5b806382413eac146102d55780638da5cb5b1461031457600080fd5b80634e859d7411610117578063715018a6116100fc578063715018a61461024c57806377e5d214146102615780637d25a05e1461029957600080fd5b80634e859d74146101d35780635e280f111461020057600080fd5b806313137d651461014957806317442b701461015e57806320b6d85e146101855780633400288b146101b3575b600080fd5b61015c61015736600461122e565b610468565b005b34801561016a57600080fd5b50604080516001815260026020820152015b60405180910390f35b34801561019157600080fd5b506101a56101a03660046112e4565b61055a565b60405190815260200161017c565b3480156101bf57600080fd5b5061015c6101ce366004611336565b610588565b3480156101df57600080fd5b506101f36101ee3660046113d9565b61059e565b60405161017c9190611499565b34801561020c57600080fd5b506102347f000000000000000000000000000000000000000000000000000000000000000081565b6040516001600160a01b03909116815260200161017c565b34801561025857600080fd5b5061015c610649565b34801561026d57600080fd5b506101a561027c3660046112e4565b600260209081526000928352604080842090915290825290205481565b3480156102a557600080fd5b506102bc6102b4366004611336565b600092915050565b60405167ffffffffffffffff909116815260200161017c565b3480156102e157600080fd5b506103046102f03660046114b0565b6001600160a01b0381163014949350505050565b604051901515815260200161017c565b34801561032057600080fd5b506000546001600160a01b0316610234565b34801561033e57600080fd5b5061030461034d3660046112e4565b67ffffffffffffffff9182166000908152600260209081526040808320939094168252919091522054151590565b61038e610389366004611517565b61065d565b60405161017c9190611571565b3480156103a757600080fd5b506101a56103b63660046115b4565b60016020526000908152604090205481565b3480156103d457600080fd5b5061015c6103e33660046115cf565b610744565b3480156103f457600080fd5b506101a56104033660046115ec565b6107e3565b34801561041457600080fd5b5061015c610423366004611605565b6108e0565b34801561043457600080fd5b5061015c6104433660046115cf565b610958565b34801561045457600080fd5b50610304610463366004611646565b6109af565b7f00000000000000000000000000000000000000000000000000000000000000006001600160a01b031633146104d1576040517f91ac5e4f0000000000000000000000000000000000000000000000000000000081523360048201526024015b60405180910390fd5b602087018035906104eb906104e6908a6115b4565b6109e5565b14610542576104fd60208801886115b4565b6040517fc26bebcc00000000000000000000000000000000000000000000000000000000815263ffffffff9091166004820152602088013560248201526044016104c8565b61055187878787878787610a3a565b50505050505050565b67ffffffffffffffff8083166000908152600260209081526040808320938516835292905220545b92915050565b610590610ac9565b61059a8282610b0f565b5050565b604080518082019091526000808252602082015260006105bd856107e3565b905060008190036106105760405162461bcd60e51b815260206004820152601360248201527f426c6f636b68617368206e6f7420666f756e640000000000000000000000000060448201526064016104c8565b6040805160208101879052808201839052815180820383018152606090910190915261063e87828787610b64565b979650505050505050565b610651610ac9565b61065b6000610c45565b565b610665611170565b6000610670856107e3565b905060008190036106c35760405162461bcd60e51b815260206004820152601360248201527f426c6f636b68617368206e6f7420666f756e640000000000000000000000000060448201526064016104c8565b604080516020810187905290810182905246606082015260009060800160408051601f198184030181526020601f8801819004810284018101909252868352925061063e918991849190899089908190840183828082843760009201829052506040805180820190915234815260208101919091529250339150610cad9050565b61074c610ac9565b6040517fca5eb5e10000000000000000000000000000000000000000000000000000000081526001600160a01b0382811660048301527f0000000000000000000000000000000000000000000000000000000000000000169063ca5eb5e190602401600060405180830381600087803b1580156107c857600080fd5b505af11580156107dc573d6000803e3d6000fd5b5050505050565b600081431161085a5760405162461bcd60e51b815260206004820152602260248201527f426c6f636b206e756d6265722073686f756c6420626520696e2074686520706160448201527f737400000000000000000000000000000000000000000000000000000000000060648201526084016104c8565b6101006108678343611662565b11156108db5760405162461bcd60e51b815260206004820152602360248201527f426c6f636b206e756d62657220697320746f6f2066617220696e20746865207060448201527f617374000000000000000000000000000000000000000000000000000000000060648201526084016104c8565b504090565b6108e8610ac9565b67ffffffffffffffff83811660008181526002602090815260408083209487168084529482529182902085905581519283528201929092529081018290527ffe35adc49ef5e4a7eda5c9cab9338a872c9c0ae436c53d4cb8bb4900b2d48da49060600160405180910390a1505050565b610960610ac9565b6001600160a01b0381166109a3576040517f1e4fbdf7000000000000000000000000000000000000000000000000000000008152600060048201526024016104c8565b6109ac81610c45565b50565b60006020820180359060019083906109c790866115b4565b63ffffffff1681526020810191909152604001600020541492915050565b63ffffffff811660009081526001602052604081205480610582576040517ff6ff4fb700000000000000000000000000000000000000000000000000000000815263ffffffff841660048201526024016104c8565b60008080610a4a8789018961169c565b67ffffffffffffffff818116600081815260026020908152604080832094881680845294825291829020869055815192835282019290925290810183905292955090935091507ffe35adc49ef5e4a7eda5c9cab9338a872c9c0ae436c53d4cb8bb4900b2d48da49060600160405180910390a150505050505050505050565b6000546001600160a01b0316331461065b576040517f118cdaa70000000000000000000000000000000000000000000000000000000081523360048201526024016104c8565b63ffffffff8216600081815260016020908152604091829020849055815192835282018390527f238399d427b947898edb290f5ff0f9109849b1c3ba196a42e35f00c50a54b98b910160405180910390a15050565b60408051808201909152600080825260208201527f00000000000000000000000000000000000000000000000000000000000000006001600160a01b031663ddc28c586040518060a001604052808863ffffffff168152602001610bc7896109e5565b8152602001878152602001868152602001851515815250306040518363ffffffff1660e01b8152600401610bfc929190611718565b6040805180830381865afa158015610c18573d6000803e3d6000fd5b505050506040513d601f19601f82011682018060405250810190610c3c91906117fe565b95945050505050565b600080546001600160a01b038381167fffffffffffffffffffffffff0000000000000000000000000000000000000000831681178455604051919092169283917f8be0079c531659141344cd1fd0a4f28419497f9722a3daafe3b4186f6b6457e09190a35050565b610cb5611170565b6000610cc48460000151610dad565b602085015190915015610cde57610cde8460200151610dee565b7f00000000000000000000000000000000000000000000000000000000000000006001600160a01b0316632637a450826040518060a001604052808b63ffffffff168152602001610d2e8c6109e5565b81526020018a815260200189815260200160008960200151111515815250866040518463ffffffff1660e01b8152600401610d6a929190611718565b60806040518083038185885af1158015610d88573d6000803e3d6000fd5b50505050506040513d601f19601f8201168201806040525081019061063e919061181a565b6000813414610dea576040517f9f7041200000000000000000000000000000000000000000000000000000000081523460048201526024016104c8565b5090565b60007f00000000000000000000000000000000000000000000000000000000000000006001600160a01b031663e4fe1d946040518163ffffffff1660e01b8152600401602060405180830381865afa158015610e4e573d6000803e3d6000fd5b505050506040513d601f19601f82011682018060405250810190610e729190611882565b90506001600160a01b038116610eb4576040517f5373352a00000000000000000000000000000000000000000000000000000000815260040160405180910390fd5b6040805133602482018190527f00000000000000000000000000000000000000000000000000000000000000006001600160a01b03818116604485015260648085018890528551808603909101815260849094019094526020830180517bffffffffffffffffffffffffffffffffffffffffffffffffffffffff167f23b872dd0000000000000000000000000000000000000000000000000000000017905261059a938516928690610f67908590610f6d565b50505050565b6000610f826001600160a01b03841683610fee565b90508051600014158015610fa7575080806020019051810190610fa5919061189f565b155b15610fe9576040517f5274afe70000000000000000000000000000000000000000000000000000000081526001600160a01b03841660048201526024016104c8565b505050565b6060610ffc83836000611003565b9392505050565b606081471015611041576040517fcd7860590000000000000000000000000000000000000000000000000000000081523060048201526024016104c8565b600080856001600160a01b0316848660405161105d91906118bc565b60006040518083038185875af1925050503d806000811461109a576040519150601f19603f3d011682016040523d82523d6000602084013e61109f565b606091505b50915091506110af8683836110b9565b9695505050505050565b6060826110ce576110c98261112e565b610ffc565b81511580156110e557506001600160a01b0384163b155b15611127576040517f9996b3150000000000000000000000000000000000000000000000000000000081526001600160a01b03851660048201526024016104c8565b5080610ffc565b80511561113e5780518082602001fd5b6040517f1425ea4200000000000000000000000000000000000000000000000000000000815260040160405180910390fd5b604051806060016040528060008019168152602001600067ffffffffffffffff1681526020016111b3604051806040016040528060008152602001600081525090565b905290565b6000606082840312156111ca57600080fd5b50919050565b60008083601f8401126111e257600080fd5b50813567ffffffffffffffff8111156111fa57600080fd5b60208301915083602082850101111561121257600080fd5b9250929050565b6001600160a01b03811681146109ac57600080fd5b600080600080600080600060e0888a03121561124957600080fd5b61125389896111b8565b965060608801359550608088013567ffffffffffffffff8082111561127757600080fd5b6112838b838c016111d0565b909750955060a08a0135915061129882611219565b90935060c089013590808211156112ae57600080fd5b506112bb8a828b016111d0565b989b979a50959850939692959293505050565b67ffffffffffffffff811681146109ac57600080fd5b600080604083850312156112f757600080fd5b8235611302816112ce565b91506020830135611312816112ce565b809150509250929050565b803563ffffffff8116811461133157600080fd5b919050565b6000806040838503121561134957600080fd5b6113528361131d565b946020939093013593505050565b7f4e487b7100000000000000000000000000000000000000000000000000000000600052604160045260246000fd5b604051601f8201601f1916810167ffffffffffffffff811182821017156113b8576113b8611360565b604052919050565b80151581146109ac57600080fd5b8035611331816113c0565b600080600080608085870312156113ef57600080fd5b6113f88561131d565b93506020808601359350604086013567ffffffffffffffff8082111561141d57600080fd5b818801915088601f83011261143157600080fd5b81358181111561144357611443611360565b61145584601f19601f8401160161138f565b9150808252898482850101111561146b57600080fd5b808484018584013760008482840101525080945050505061148e606086016113ce565b905092959194509250565b815181526020808301519082015260408101610582565b60008060008060a085870312156114c657600080fd5b6114d086866111b8565b9350606085013567ffffffffffffffff8111156114ec57600080fd5b6114f8878288016111d0565b909450925050608085013561150c81611219565b939692955090935050565b6000806000806060858703121561152d57600080fd5b6115368561131d565b935060208501359250604085013567ffffffffffffffff81111561155957600080fd5b611565878288016111d0565b95989497509550505050565b60006080820190508251825267ffffffffffffffff602084015116602083015260408301516115ad604084018280518252602090810151910152565b5092915050565b6000602082840312156115c657600080fd5b610ffc8261131d565b6000602082840312156115e157600080fd5b8135610ffc81611219565b6000602082840312156115fe57600080fd5b5035919050565b60008060006060848603121561161a57600080fd5b8335611625816112ce565b92506020840135611635816112ce565b929592945050506040919091013590565b60006060828403121561165857600080fd5b610ffc83836111b8565b81810381811115610582577f4e487b7100000000000000000000000000000000000000000000000000000000600052601160045260246000fd5b6000806000606084860312156116b157600080fd5b505081359360208301359350604090920135919050565b60005b838110156116e35781810151838201526020016116cb565b50506000910152565b600081518084526117048160208601602086016116c8565b601f01601f19169290920160200192915050565b6040815263ffffffff8351166040820152602083015160608201526000604084015160a0608084015261174e60e08401826116ec565b905060608501517fffffffffffffffffffffffffffffffffffffffffffffffffffffffffffffffc08483030160a085015261178982826116ec565b60809690960151151560c08501525050506001600160a01b039190911660209091015290565b6000604082840312156117c157600080fd5b6040516040810181811067ffffffffffffffff821117156117e4576117e4611360565b604052825181526020928301519281019290925250919050565b60006040828403121561181057600080fd5b610ffc83836117af565b60006080828403121561182c57600080fd5b6040516060810181811067ffffffffffffffff8211171561184f5761184f611360565b604052825181526020830151611864816112ce565b602082015261187684604085016117af565b60408201529392505050565b60006020828403121561189457600080fd5b8151610ffc81611219565b6000602082840312156118b157600080fd5b8151610ffc816113c0565b600082516118ce8184602087016116c8565b919091019291505056fea26469706673582212204c856209f8e10886ce96750dca3ee987e62b6b5a72289cb167c0deb58381424064736f6c63430008180033",
  "devdoc": {
    "errors": {
      "AddressEmptyCode(address)": [
        {
          "details": "There's no code at `target` (it is not a contract)."
        }
      ],
      "AddressInsufficientBalance(address)": [
        {
          "details": "The ETH balance of the account is not enough to perform the operation."
        }
      ],
      "FailedInnerCall()": [
        {
          "details": "A call to an address target failed. The target may have reverted."
        }
      ],
      "OwnableInvalidOwner(address)": [
        {
          "details": "The owner is not a valid owner account. (eg. `address(0)`)"
        }
      ],
      "OwnableUnauthorizedAccount(address)": [
        {
          "details": "The caller account is not authorized to perform an operation."
        }
      ],
      "SafeERC20FailedOperation(address)": [
        {
          "details": "An operation with an ERC20 token failed."
        }
      ]
    },
    "kind": "dev",
    "methods": {
      "allowInitializePath((uint32,bytes32,uint64))": {
        "details": "This indicates to the endpoint that the OApp has enabled msgs for this particular path to be received.This defaults to assuming if a peer has been set, its initialized. Can be overridden by the OApp if there is other logic to determine this.",
        "params": {
          "origin": "The origin information containing the source endpoint and sender address."
        },
        "returns": {
          "_0": "Whether the path has been initialized."
        }
      },
      "isComposeMsgSender((uint32,bytes32,uint64),bytes,address)": {
        "details": "_origin The origin information containing the source endpoint and sender address.  - srcEid: The source chain endpoint ID.  - sender: The sender address on the src chain.  - nonce: The nonce of the message._message The lzReceive payload.Applications can optionally choose to implement separate composeMsg senders that are NOT the bridging layer.The default sender IS the OAppReceiver implementer.",
        "params": {
          "_sender": "The sender address."
        },
        "returns": {
          "_0": "isSender Is a valid sender."
        }
      },
      "lzReceive((uint32,bytes32,uint64),bytes32,bytes,address,bytes)": {
        "details": "Entry point for receiving messages or packets from the endpoint.Entry point for receiving msg/packet from the LayerZero endpoint.",
        "params": {
          "_executor": "The address of the executor for the received message.",
          "_extraData": "Additional arbitrary data provided by the corresponding executor.",
          "_guid": "The unique identifier for the received LayerZero message.",
          "_message": "The payload of the received message.",
          "_origin": "The origin information containing the source endpoint and sender address.  - srcEid: The source chain endpoint ID.  - sender: The sender address on the src chain.  - nonce: The nonce of the message."
        }
      },
      "nextNonce(uint32,bytes32)": {
        "details": "_srcEid The source endpoint ID._sender The sender address.The path nonce starts from 1. If 0 is returned it means that there is NO nonce ordered enforcement.Is required by the off-chain executor to determine the OApp expects msg execution is ordered.This is also enforced by the OApp.By default this is NOT enabled. ie. nextNonce is hardcoded to return 0.",
        "returns": {
          "nonce": "The next nonce."
        }
      },
      "oAppVersion()": {
        "returns": {
          "receiverVersion": "The version of the OAppReceiver.sol implementation.",
          "senderVersion": "The version of the OAppSender.sol implementation."
        }
      },
      "owner()": {
        "details": "Returns the address of the current owner."
      },
      "renounceOwnership()": {
        "details": "Leaves the contract without owner. It will not be possible to call `onlyOwner` functions. Can only be called by the current owner. NOTE: Renouncing ownership will leave the contract without an owner, thereby disabling any functionality that is only available to the owner."
      },
      "setDelegate(address)": {
        "details": "Only the owner/admin of the OApp can call this function.Provides the ability for a delegate to set configs, on behalf of the OApp, directly on the Endpoint contract.",
        "params": {
          "_delegate": "The address of the delegate to be set."
        }
      },
      "setPeer(uint32,bytes32)": {
        "details": "Only the owner/admin of the OApp can call this function.Indicates that the peer is trusted to send LayerZero messages to this OApp.Set this to bytes32(0) to remove the peer address.Peer is a bytes32 to accommodate non-evm chains.",
        "params": {
          "_eid": "The endpoint ID.",
          "_peer": "The address of the peer to be associated with the corresponding endpoint."
        }
      },
      "transferOwnership(address)": {
        "details": "Transfers ownership of the contract to a new account (`newOwner`). Can only be called by the current owner."
      }
    },
    "version": 1
  },
  "userdoc": {
    "kind": "user",
    "methods": {
      "allowInitializePath((uint32,bytes32,uint64))": {
        "notice": "Checks if the path initialization is allowed based on the provided origin."
      },
      "endpoint()": {
        "notice": "Retrieves the LayerZero endpoint associated with the OApp."
      },
      "isComposeMsgSender((uint32,bytes32,uint64),bytes,address)": {
        "notice": "Indicates whether an address is an approved composeMsg sender to the Endpoint."
      },
      "nextNonce(uint32,bytes32)": {
        "notice": "Retrieves the next nonce for a given source endpoint and sender address."
      },
      "oAppVersion()": {
        "notice": "Retrieves the OApp version information."
      },
      "peers(uint32)": {
        "notice": "Retrieves the peer (OApp) associated with a corresponding endpoint."
      },
      "setDelegate(address)": {
        "notice": "Sets the delegate address for the OApp."
      },
      "setPeer(uint32,bytes32)": {
        "notice": "Sets the peer address (OApp instance) for a corresponding endpoint."
      }
    },
    "version": 1
  },
  "storageLayout": {
    "storage": [
      {
        "astId": 1327,
        "contract": "contracts/Lisan.sol:Lisan",
        "label": "_owner",
        "offset": 0,
        "slot": "0",
        "type": "t_address"
      },
      {
        "astId": 64,
        "contract": "contracts/Lisan.sol:Lisan",
        "label": "peers",
        "offset": 0,
        "slot": "1",
        "type": "t_mapping(t_uint32,t_bytes32)"
      },
      {
        "astId": 2289,
        "contract": "contracts/Lisan.sol:Lisan",
        "label": "visions",
        "offset": 0,
        "slot": "2",
        "type": "t_mapping(t_uint64,t_mapping(t_uint64,t_bytes32))"
      }
    ],
    "types": {
      "t_address": {
        "encoding": "inplace",
        "label": "address",
        "numberOfBytes": "20"
      },
      "t_bytes32": {
        "encoding": "inplace",
        "label": "bytes32",
        "numberOfBytes": "32"
      },
      "t_mapping(t_uint32,t_bytes32)": {
        "encoding": "mapping",
        "key": "t_uint32",
        "label": "mapping(uint32 => bytes32)",
        "numberOfBytes": "32",
        "value": "t_bytes32"
      },
      "t_mapping(t_uint64,t_bytes32)": {
        "encoding": "mapping",
        "key": "t_uint64",
        "label": "mapping(uint64 => bytes32)",
        "numberOfBytes": "32",
        "value": "t_bytes32"
      },
      "t_mapping(t_uint64,t_mapping(t_uint64,t_bytes32))": {
        "encoding": "mapping",
        "key": "t_uint64",
        "label": "mapping(uint64 => mapping(uint64 => bytes32))",
        "numberOfBytes": "32",
        "value": "t_mapping(t_uint64,t_bytes32)"
      },
      "t_uint32": {
        "encoding": "inplace",
        "label": "uint32",
        "numberOfBytes": "4"
      },
      "t_uint64": {
        "encoding": "inplace",
        "label": "uint64",
        "numberOfBytes": "8"
      }
    }
  }
}