{
  "address": "0x68B13b58F55C91eeC85fa5F792deb4f759D86856",
  "abi": [
    {
      "inputs": [
        {
          "internalType": "address",
          "name": "_verifier",
          "type": "address"
        },
        {
          "internalType": "address",
          "name": "_lisan",
          "type": "address"
        }
      ],
      "stateMutability": "nonpayable",
      "type": "constructor"
    },
    {
      "anonymous": false,
      "inputs": [
        {
          "indexed": false,
          "internalType": "bytes32",
          "name": "sepoliaBlockHash",
          "type": "bytes32"
        },
        {
          "indexed": false,
          "internalType": "uint256",
          "name": "txIdx",
          "type": "uint256"
        }
      ],
      "name": "SepoliaTxProven",
      "type": "event"
    },
    {
      "inputs": [],
      "name": "SEPOLIA_ETH_RECEIVER",
      "outputs": [
        {
          "internalType": "address",
          "name": "",
          "type": "address"
        }
      ],
      "stateMutability": "view",
      "type": "function"
    },
    {
      "inputs": [
        {
          "internalType": "uint8[20]",
          "name": "inputArray",
          "type": "uint8[20]"
        }
      ],
      "name": "addressConcatenate",
      "outputs": [
        {
          "internalType": "address",
          "name": "",
          "type": "address"
        }
      ],
      "stateMutability": "pure",
      "type": "function"
    },
    {
      "inputs": [
        {
          "internalType": "uint8[32]",
          "name": "inputArray",
          "type": "uint8[32]"
        }
      ],
      "name": "concatenate",
      "outputs": [
        {
          "internalType": "bytes32",
          "name": "",
          "type": "bytes32"
        }
      ],
      "stateMutability": "pure",
      "type": "function"
    },
    {
      "inputs": [
        {
          "internalType": "bytes32[]",
          "name": "inputArray",
          "type": "bytes32[]"
        }
      ],
      "name": "convertAndConcatenate",
      "outputs": [
        {
          "internalType": "bytes32",
          "name": "",
          "type": "bytes32"
        }
      ],
      "stateMutability": "pure",
      "type": "function"
    },
    {
      "inputs": [
        {
          "internalType": "bytes32[]",
          "name": "inputArray",
          "type": "bytes32[]"
        }
      ],
      "name": "convertAndConcatenateAddress",
      "outputs": [
        {
          "internalType": "address",
          "name": "",
          "type": "address"
        }
      ],
      "stateMutability": "pure",
      "type": "function"
    },
    {
      "inputs": [],
      "name": "lisan",
      "outputs": [
        {
          "internalType": "contract ILisan",
          "name": "",
          "type": "address"
        }
      ],
      "stateMutability": "view",
      "type": "function"
    },
    {
      "inputs": [
        {
          "internalType": "bytes",
          "name": "_proof",
          "type": "bytes"
        },
        {
          "internalType": "bytes32[]",
          "name": "_publicInputs",
          "type": "bytes32[]"
        }
      ],
      "name": "proveETHSepoliaTransfer",
      "outputs": [],
      "stateMutability": "nonpayable",
      "type": "function"
    },
    {
      "inputs": [
        {
          "internalType": "bytes32",
          "name": "",
          "type": "bytes32"
        }
      ],
      "name": "txProven",
      "outputs": [
        {
          "internalType": "bool",
          "name": "",
          "type": "bool"
        }
      ],
      "stateMutability": "view",
      "type": "function"
    },
    {
      "inputs": [],
      "name": "verifier",
      "outputs": [
        {
          "internalType": "contract UltraVerifier",
          "name": "",
          "type": "address"
        }
      ],
      "stateMutability": "view",
      "type": "function"
    }
  ],
  "transactionHash": "0xc5b3c14d66d626765bef63074ed32343a1898a3aecba515559c0b847d427f3ea",
  "args": [
    "0xB943bFeDFeFA3F63213ff80Ffe31E4058de5E91D",
    "0x381EBA262eb91f55ca44748B1151406F5Da5bd09"
  ],
  "numDeployments": 1,
  "solcInputHash": "c80636fd2a8ca37349b2a4874ebaab36",
  "bytecode": "0x6080604052600380546001600160a01b0319167313e5e5dea5620a8f4b5c430339795cb5bab6676e17905534801561003657600080fd5b50604051610dc8380380610dc8833981016040819052610055916100a2565b600080546001600160a01b039384166001600160a01b031991821617909155600180549290931691161790556100d5565b80516001600160a01b038116811461009d57600080fd5b919050565b600080604083850312156100b557600080fd5b6100be83610086565b91506100cc60208401610086565b90509250929050565b610ce4806100e46000396000f3fe608060405234801561001057600080fd5b50600436106100a35760003560e01c80639f8112e111610076578063b7908b341161005b578063b7908b3414610179578063bf4c0c051461018c578063f7341449146101a157600080fd5b80639f8112e114610146578063abc0cd451461016657600080fd5b80632b7ac3f3146100a85780634849b3b6146100f25780634d595720146101055780638e380a1614610125575b600080fd5b6000546100c89073ffffffffffffffffffffffffffffffffffffffff1681565b60405173ffffffffffffffffffffffffffffffffffffffff90911681526020015b60405180910390f35b6100c86101003660046108e5565b6101d4565b6001546100c89073ffffffffffffffffffffffffffffffffffffffff1681565b6101386101333660046108e5565b610248565b6040519081526020016100e9565b6003546100c89073ffffffffffffffffffffffffffffffffffffffff1681565b6101386101743660046109a1565b6102b0565b6100c8610187366004610a27565b610305565b61019f61019a366004610aa2565b610360565b005b6101c46101af366004610b67565b60026020526000908152604090205460ff1681565b60405190151581526020016100e9565b60006101de610860565b60005b83518110156102345760008482815181106101fe576101fe610b80565b602002602001015160001c90508083836014811061021e5761021e610b80565b60ff9092166020929092020152506001016101e1565b50600061024082610305565b949350505050565b600061025261087f565b60005b83518110156102a857600084828151811061027257610272610b80565b602002602001015160001c90508083836020811061029257610292610b80565b60ff909216602092909202015250600101610255565b506000610240825b60008060005b60208110156102fe576102ca816008610bac565b6102d59060f8610bc9565b8482602081106102e7576102e7610b80565b602002015160ff16901b91909117906001016102b6565b5092915050565b60008060005b60148110156103565761031f816008610bac565b61032a906098610bc9565b84826014811061033c5761033c610b80565b602002015160ff16901b60601b919091179060010161030b565b5060601c92915050565b6040805160148082526102a08201909252600091602082016102808036833701905050905060005b60148110156103e45783838261039f603483610bc9565b6103a99190610bdc565b8181106103b8576103b8610b80565b905060200201358282815181106103d1576103d1610b80565b6020908102919091010152600101610388565b5060006103f0826101d4565b60035490915073ffffffffffffffffffffffffffffffffffffffff8083169116146104625760405162461bcd60e51b815260206004820152601060248201527f496e76616c69642061646472657373210000000000000000000000000000000060448201526064015b60405180910390fd5b8383600381811061047557610475610b80565b9050602002013560001c671bc16d674ec80000146104d55760405162461bcd60e51b815260206004820152601160248201527f696e636f727265637420616d6f756e74210000000000000000000000000000006044820152606401610459565b60408051602080825261042082019092526000918082016104008036833701905050905060005b602081101561055857858582610513602083610bc9565b61051d9190610bdc565b81811061052c5761052c610b80565b9050602002013582828151811061054557610545610b80565b60209081029190910101526001016104fc565b50600061056482610248565b60015490915060009073ffffffffffffffffffffffffffffffffffffffff166320b6d85e8888848161059857610598610b80565b9050602002013560001c898960018181106105b5576105b5610b80565b9050602002013560001c6040518363ffffffff1660e01b81526004016105f292919067ffffffffffffffff92831681529116602082015260400190565b6020604051808303816000875af1158015610611573d6000803e3d6000fd5b505050506040513d601f19601f820116820180604052508101906106359190610bef565b90508181146106865760405162461bcd60e51b815260206004820152601460248201527f426c6f636b206e6f7420696e20686973746f72790000000000000000000000006044820152606401610459565b600080546040517fea50d0e400000000000000000000000000000000000000000000000000000000815273ffffffffffffffffffffffffffffffffffffffff9091169063ea50d0e4906106e3908d908d908d908d90600401610c08565b602060405180830381865afa158015610700573d6000803e3d6000fd5b505050506040513d601f19601f820116820180604052508101906107249190610c85565b9050806107735760405162461bcd60e51b815260206004820152600e60248201527f496e76616c69642070726f6f66210000000000000000000000000000000000006044820152606401610459565b600160026000858b8b600281811061078d5761078d610b80565b905060200201356040516020016107ae929190918252602082015260400190565b60408051808303601f1901815291815281516020928301208352908201929092520160002080547fffffffffffffffffffffffffffffffffffffffffffffffffffffffffffffff00169115159190911790557f400701ee548a8b7f0dbf9e534e2b52c25af7bb8b52cba9a3f2d8c4d68df9fcc5838989600281811061083557610835610b80565b604080519485526020918202939093013590840152500160405180910390a150505050505050505050565b6040518061028001604052806014906020820280368337509192915050565b6040518061040001604052806020906020820280368337509192915050565b634e487b7160e01b600052604160045260246000fd5b604051601f8201601f1916810167ffffffffffffffff811182821017156108dd576108dd61089e565b604052919050565b600060208083850312156108f857600080fd5b823567ffffffffffffffff8082111561091057600080fd5b818501915085601f83011261092457600080fd5b8135818111156109365761093661089e565b8060051b91506109478483016108b4565b818152918301840191848101908884111561096157600080fd5b938501935b8385101561097f57843582529385019390850190610966565b98975050505050505050565b803560ff8116811461099c57600080fd5b919050565b60006104008083850312156109b557600080fd5b83601f8401126109c457600080fd5b60405181810181811067ffffffffffffffff821117156109e6576109e661089e565b6040529083019080858311156109fb57600080fd5b845b83811015610a1c57610a0e8161098b565b8252602091820191016109fd565b509095945050505050565b6000610280808385031215610a3b57600080fd5b83601f840112610a4a57600080fd5b60405181810181811067ffffffffffffffff82111715610a6c57610a6c61089e565b604052908301908085831115610a8157600080fd5b845b83811015610a1c57610a948161098b565b825260209182019101610a83565b60008060008060408587031215610ab857600080fd5b843567ffffffffffffffff80821115610ad057600080fd5b818701915087601f830112610ae457600080fd5b813581811115610af357600080fd5b886020828501011115610b0557600080fd5b602092830196509450908601359080821115610b2057600080fd5b818701915087601f830112610b3457600080fd5b813581811115610b4357600080fd5b8860208260051b8501011115610b5857600080fd5b95989497505060200194505050565b600060208284031215610b7957600080fd5b5035919050565b634e487b7160e01b600052603260045260246000fd5b634e487b7160e01b600052601160045260246000fd5b8082028115828204841417610bc357610bc3610b96565b92915050565b81810381811115610bc357610bc3610b96565b80820180821115610bc357610bc3610b96565b600060208284031215610c0157600080fd5b5051919050565b60408152836040820152838560608301376000606085830101526000601f19601f860116820160608382030160208401528360608201527f07ffffffffffffffffffffffffffffffffffffffffffffffffffffffffffffff841115610c6c57600080fd5b8360051b80866080840137016080019695505050505050565b600060208284031215610c9757600080fd5b81518015158114610ca757600080fd5b939250505056fea264697066735822122091c93ca2724c9bfacd4dae7d3381ce89cc1e0999184679b2a0ee7700058c554a64736f6c63430008180033",
  "devdoc": {
    "kind": "dev",
    "methods": {},
    "version": 1
  },
  "userdoc": {
    "kind": "user",
    "methods": {},
    "version": 1
  },
  "storageLayout": {
    "storage": [
      {
        "astId": 18,
        "contract": "contracts/ProofOfETHSepoliaTransfer.sol:ProofOfETHSepoliaTransfer",
        "label": "verifier",
        "offset": 0,
        "slot": "0",
        "type": "t_contract(UltraVerifier)1269"
      },
      {
        "astId": 21,
        "contract": "contracts/ProofOfETHSepoliaTransfer.sol:ProofOfETHSepoliaTransfer",
        "label": "lisan",
        "offset": 0,
        "slot": "1",
        "type": "t_contract(ILisan)11"
      },
      {
        "astId": 25,
        "contract": "contracts/ProofOfETHSepoliaTransfer.sol:ProofOfETHSepoliaTransfer",
        "label": "txProven",
        "offset": 0,
        "slot": "2",
        "type": "t_mapping(t_bytes32,t_bool)"
      },
      {
        "astId": 28,
        "contract": "contracts/ProofOfETHSepoliaTransfer.sol:ProofOfETHSepoliaTransfer",
        "label": "SEPOLIA_ETH_RECEIVER",
        "offset": 0,
        "slot": "3",
        "type": "t_address"
      }
    ],
    "types": {
      "t_address": {
        "encoding": "inplace",
        "label": "address",
        "numberOfBytes": "20"
      },
      "t_bool": {
        "encoding": "inplace",
        "label": "bool",
        "numberOfBytes": "1"
      },
      "t_bytes32": {
        "encoding": "inplace",
        "label": "bytes32",
        "numberOfBytes": "32"
      },
      "t_contract(ILisan)11": {
        "encoding": "inplace",
        "label": "contract ILisan",
        "numberOfBytes": "20"
      },
      "t_contract(UltraVerifier)1269": {
        "encoding": "inplace",
        "label": "contract UltraVerifier",
        "numberOfBytes": "20"
      },
      "t_mapping(t_bytes32,t_bool)": {
        "encoding": "mapping",
        "key": "t_bytes32",
        "label": "mapping(bytes32 => bool)",
        "numberOfBytes": "32",
        "value": "t_bool"
      }
    }
  }
}